:020000040800F2
:1000000000000520791200085D1100086111000848
:1000100065110008691100086D110008000000005A
:100020000000000000000000000000007111000846
:100030007511000800000000791100087D1100080A
:10004000C9120008C9120008C9120008C912000824
:10005000C9120008C9120008C9120008C912000814
:10006000C9120008C9120008C9120008811100084D
:10007000C9120008C9120008C9120008C9120008F4
:10008000C9120008C91200088D110008C912000821
:10009000C9120008C9120008C9120008C9120008D4
:1000A000C9120008C9120008C9120008C9120008C4
:1000B000C9120008C9120008C9120008C9120008B4
:1000C000C9120008C9120008C9120008C9120008A4
:1000D000C9120008C9120008C9120008C912000894
:1000E00099110008C9120008C9120008C9120008B5
:1000F000C9120008C9120008C9120008C912000874
:10010000C9120008C9120008C9120008C912000863
:10011000C9120008C9120008C9120008C912000853
:10012000C9120008C9120008C9120008C912000843
:10013000C9120008C9120008C9120008C912000833
:10014000C9120008A1110008C9120008C91200084C
:10015000C9120008C9120008C9120008C912000813
:10016000C9120008C9120008C9120008C912000803
:10017000C9120008C9120008C912000800000000D6
:10018000C9120008C9120008C9120008C9120008E3
:10019000C9120008C9120008C9120008C9120008D3
:0C01A000C9120008C9120008000000008D
:1001B00010B5054C237833B9044B13B10448AFF3A1
:1001C00000800123237010BDD80100200000000032
:1001D000D486000808B5034B1BB103490348AFF3AD
:1001E000008008BD00000000DC010020D48600086B
:1001F00001F0FF01102A2BDB10F0070F08D010F8D8
:10020000013B013A8B422DD010F0070F42B3F6D1DB
:10021000F0B441EA012141EA014122F007047FF0F4
:1002200000070023F0E80256083C85EA010586EA4B
:10023000010685FA47F5A3FA87F586FA47F6A5FA87
:1002400087F68EB9EED1F0BC01F0FF0102F0070293
:1002500032B110F8013B013A83EA010313B1F8D13E
:100260000020704701387047002D06BF354603381F
:10027000073815F0010F07D1013015F4807F02BF58
:10028000013015F4C03F0130F0BC0138704700BFA9
:10029000034613F8012B002AFBD1181A01387047C6
:1002A00081F0004102E000BF83F0004330B54FEA27
:1002B00041044FEA430594EA050F08BF90EA020F94
:1002C0001FBF54EA000C55EA020C7FEA645C7FEA27
:1002D000655C00F0E2804FEA5454D4EB5555B8BF4A
:1002E0006D420CDD2C4480EA020281EA030382EABB
:1002F000000083EA010180EA020281EA0303362D4D
:1003000088BF30BD11F0004F4FEA01314FF4801C1F
:100310004CEA113102D0404261EB410113F0004F31
:100320004FEA03334CEA133302D0524263EB4303E8
:1003300094EA050F00F0A780A4F10104D5F1200E86
:100340000DDB02FA0EFC22FA05F2801841F10001E1
:1003500003FA0EF2801843FA05F359410EE0A5F1B5
:1003600020050EF1200E012A03FA0EFC28BF4CF0E6
:10037000020C43FA05F3C01851EBE37101F000459C
:1003800007D54FF0000EDCF1000C7EEB00006EEBA9
:100390000101B1F5801F1BD3B1F5001F0CD3490833
:1003A0005FEA30004FEA3C0C04F101044FEA44528A
:1003B00012F5800F80F09A80BCF1004F08BF5FEA11
:1003C000500C50F1000041EB045141EA050130BDF1
:1003D0005FEA4C0C404141EB0101013C28BFB1F503
:1003E000801FE9D291F0000F04BF01460020B1FA4E
:1003F00081F308BF2033A3F10B03B3F120020CDA21
:100400000C3208DD02F1140CC2F10C0201FA0CF0FE
:1004100021FA02F10CE002F11402D8BFC2F1200C63
:1004200001FA02F120FA0CFCDCBF41EA0C01904019
:10043000E41AA2BF01EB0451294330BD6FEA040462
:100440001F3C1CDA0C340EDC04F11404C4F120024D
:1004500020FA04F001FA02F340EA030021FA04F35F
:1004600045EA030130BDC4F10C04C4F1200220FAB6
:1004700002F001FA04F340EA0300294630BD21FAF4
:1004800004F0294630BD94F0000F83F4801306BFBA
:1004900081F480110134013D4EE77FEA645C18BFAE
:1004A0007FEA655C29D094EA050F08BF90EA020F45
:1004B00005D054EA000C04BF1946104630BD91EA3D
:1004C000030F1EBF0021002030BD5FEA545C05D140
:1004D0004000494128BF41F0004130BD14F580047F
:1004E0003CBF01F5801130BD01F0004545F0FE41F3
:1004F00041F470014FF0000030BD7FEA645C1ABF28
:10050000194610467FEA655C1CBF0B46024650EA5E
:10051000013406BF52EA033591EA030F41F400218A
:1005200030BD00BF90F0000F04BF0021704730B510
:100530004FF4806404F132044FF000054FF00001E5
:1005400050E700BF90F0000F04BF0021704730B5A6
:100550004FF4806404F1320410F0004548BF40427B
:100560004FF000013EE700BF42004FEAE2014FEAD0
:1005700031014FEA02701FBF12F07F4393F07F4FAB
:1005800081F06051704732F07F4208BF704793F0AE
:100590007F4F04BF41F40021704730B54FF46074C1
:1005A00001F0004521F000411CE700BF50EA0102C4
:1005B00008BF704730B54FF000050AE050EA01026D
:1005C00008BF704730B511F0004502D5404261EBDD
:1005D00041014FF4806404F132045FEA915C3FF41E
:1005E000D8AE4FF003025FEADC0C18BF03325FEABB
:1005F000DC0C18BF033202EBDC02C2F1200300FA6C
:1006000003FC20FA02F001FA03FE40EA0E0021FA90
:1006100002F11444BDE600BF70B54FF0FF0C4CF47E
:10062000E06C1CEA11541DBF1CEA135594EA0C0F30
:1006300095EA0C0F00F0DEF82C4481EA030621EA6B
:100640004C5123EA4C5350EA013518BF52EA0335A6
:1006500041F4801143F4801338D0A0FB02CE4FF058
:100660000005E1FB02E506F00042E0FB03E54FF088
:100670000006E1FB03569CF0000F18BF4EF0010E80
:10068000A4F1FF04B6F5007F64F5407404D25FEA7C
:100690004E0E6D4146EB060642EAC62141EA55512F
:1006A0004FEAC52040EA5E504FEACE2EB4F1FD0C71
:1006B00088BFBCF5E06F1ED8BEF1004F08BF5FEAEF
:1006C000500E50F1000041EB045170BD06F00046A1
:1006D00046EA010140EA020081EA0301B4EB5C044E
:1006E000C2BFD4EB0C0541EA045170BD41F4801146
:1006F0004FF0000E013C00F3AB8014F1360FDEBF6B
:10070000002001F0004170BDC4F10004203C35DA46
:100710000C341BDC04F11404C4F1200500FA05F3C9
:1007200020FA04F001FA05F240EA020001F000426A
:1007300021F0004110EBD37021FA04F642EB0601E0
:100740005EEA430E08BF20EAD37070BDC4F10C040A
:10075000C4F1200500FA04F320FA05F001FA04F2CE
:1007600040EA020001F0004110EBD37041F10001BA
:100770005EEA430E08BF20EAD37070BDC4F12005C5
:1007800000FA05F24EEA020E20FA04F301FA05F22D
:1007900043EA020321FA04F001F0004121FA04F2D5
:1007A00020EA020000EBD3705EEA430E08BF20EAA5
:1007B000D37070BD94F0000F0FD101F000464000DF
:1007C00041EB010111F4801F08BF013CF7D041EA61
:1007D000060195F0000F18BF704703F00046520065
:1007E00043EB030313F4801F08BF013DF7D043EA36
:1007F0000603704794EA0C0F0CEA135518BF95EAEC
:100800000C0F0CD050EA410618BF52EA4306D1D172
:1008100081EA030101F000414FF0000070BD50EA91
:10082000410606BF1046194652EA430619D094EA1B
:100830000C0F02D150EA013613D195EA0C0F05D105
:1008400052EA03361CBF104619460AD181EA030159
:1008500001F0004141F0FE4141F470014FF0000011
:1008600070BD41F0FE4141F4780170BD70B54FF0AC
:10087000FF0C4CF4E06C1CEA11541DBF1CEA13552C
:1008800094EA0C0F95EA0C0F00F0A7F8A4EB05040E
:1008900081EA030E52EA03354FEA013100F0888005
:1008A0004FEA03334FF0805545EA131343EA1263CE
:1008B0004FEA022245EA111545EA10654FEA002683
:1008C0000EF000419D4208BF964244F1FD0404F53C
:1008D000407402D25B084FEA3202B61A65EB030598
:1008E0005B084FEA32024FF480104FF4002CB6EB55
:1008F000020E75EB030E22BFB61A754640EA0C00D5
:100900005B084FEA3202B6EB020E75EB030E22BF14
:10091000B61A754640EA5C005B084FEA3202B6EB55
:10092000020E75EB030E22BFB61A754640EA9C0014
:100930005B084FEA3202B6EB020E75EB030E22BFE4
:10094000B61A754640EADC0055EA060E18D04FEAA2
:10095000051545EA16754FEA06164FEAC30343EA42
:1009600052734FEAC2025FEA1C1CC0D111F4801F0F
:100970000BD141EA00014FF000004FF0004CB6E708
:1009800011F4801F04BF01430020B4F1FD0C88BFA7
:10099000BCF5E06F3FF6AFAEB5EB030C04BFB6EBB2
:1009A000020C5FEA500C50F1000041EB045170BDA5
:1009B0000EF0004E4EEA113114EB5C04C2BFD4EBD2
:1009C0000C0541EA045170BD41F480114FF0000E56
:1009D000013C90E645EA060E8DE60CEA135594EAD2
:1009E0000C0F08BF95EA0C0F3FF43BAF94EA0C0FD5
:1009F0000AD150EA01347FF434AF95EA0C0F7FF44A
:100A000025AF104619462CE795EA0C0F06D152EA9D
:100A100003353FF4FDAE1046194622E750EA410681
:100A200018BF52EA43067FF4C5AE50EA41047FF492
:100A30000DAF52EA43057FF4EBAE12E74FF0FF3CF7
:100A400006E000BF4FF0010C02E000BF4FF0010CC8
:100A50004DF804CD4FEA410C7FEA6C5C4FEA430C41
:100A600018BF7FEA6C5C1BD001B050EA410C0CBF90
:100A700052EA430C91EA030F02BF90EA020F0020F2
:100A8000704710F1000F91EA030F58BF994208BF59
:100A900090422CBFD8176FEAE37040F00100704716
:100AA0004FEA410C7FEA6C5C02D150EA013C07D16D
:100AB0004FEA430C7FEA6C5CD6D152EA033CD3D0B8
:100AC0005DF8040B704700BF8446104662468C46B2
:100AD0001946634600E000BF01B5FFF7B7FF0028E5
:100AE00048BF10F1000F01BD4DF808EDFFF7F4FF0E
:100AF0000CBF012000205DF808FB00BF4DF808ED99
:100B0000FFF7EAFF34BF012000205DF808FB00BFBB
:100B10004DF808EDFFF7E0FF94BF012000205DF8DD
:100B200008FB00BF4DF808EDFFF7CEFF94BF012092
:100B300000205DF808FB00BF4DF808EDFFF7C4FF8B
:100B400034BF012000205DF808FB00BF4FEA410CD4
:100B50007FEA6C5C02D150EA013C0AD14FEA430CB7
:100B60007FEA6C5C02D152EA033C02D14FF00000F4
:100B700070474FF0010070474FEA410212F5001232
:100B800015D211D56FF47873B3EB625212D94FEAD4
:100B9000C12343F0004343EA505311F0004F23FABE
:100BA00002F018BF404270474FF00000704750EA13
:100BB000013005D111F0004008BF6FF000407047D0
:100BC0004FF00000704700BF4FEA4102B2F1E0432E
:100BD00024BFB3F5001CDCF1FE5C0DD901F0004C24
:100BE0004FEAC0024CEA5070B2F1004F40EB830074
:100BF00008BF20F00100704711F0804F21D113F1A0
:100C00003872BCBF01F00040704741F480114FEAD8
:100C10005252C2F11802C2F1200C10FA0CF320FA61
:100C200002F018BF40F001004FEAC1234FEAD3237E
:100C300003FA0CFC40EA0C0023FA02F34FEA4303E8
:100C4000CCE77FEA625307D150EA01331EBF4FF071
:100C5000FE4040F44000704701F0004040F0FE408C
:100C600040F40000704700BF53B94AB9002908BFDB
:100C700000281CBF4FF0FF314FF0FF3000F070B97B
:100C8000ADF1080C6DE904CE00F006F8DDF804E0E3
:100C9000DDE9022304B070472DE9F047089E0D46B8
:100CA00004460F46002B4AD18A42944665D9B2FACF
:100CB00082F343B102FA03FCC3F120029F4020FA01
:100CC00002F217439C404FEA1C4E1FFA8CF5B7FB0B
:100CD000FEF1220C0EFB117742EA074201FB05F000
:100CE00090420AD91CEB020201F1FF3780F01C810F
:100CF000904240F2198102396244121AA4B2B2FB46
:100D0000FEF00EFB102244EA024400FB05F5A5426A
:100D10000AD91CEB040400F1FF3280F00781A542E0
:100D200040F204816444023840EA0140641B00211F
:100D30001EB1DC400023C6E90043BDE8F0878B42CA
:100D400008D9002E00F0ED800021C6E90005084614
:100D5000BDE8F087B3FA83F1002949D1AB4202D351
:100D6000824200F2F880841A65EB030201201746E4
:100D7000002EE2D0C6E90047DFE702B9FFDEB2FA93
:100D800082F3002B40F090808A1A4FEA1C471FFA2A
:100D90008CFE0121B2FBF7F507FB1520220C42EA7D
:100DA00000420EFB05F0904208D91CEB020205F14F
:100DB000FF3802D2904200F2CB804546121AA4B20C
:100DC000B2FBF7F007FB102244EA02440EFB00FEE0
:100DD000A64508D91CEB040400F1FF3202D2A64557
:100DE00000F2BB801046A4EB0E0440EA05409FE7EA
:100DF000C1F120078B4022FA07FC4CEA030C05FAEC
:100E000001F420FA07F3FD404FEA1C492343B5FBE8
:100E1000F9F81FFA8CFE09FB18551C0C44EA05442E
:100E200008FB0EF5A54202FA01F200FA01F00BD917
:100E30001CEB040408F1FF3A80F08880A54240F2E0
:100E40008580A8F102086444641B9DB2B4FBF9F3E9
:100E500009FB134445EA044403FB0EFEA64508D9EA
:100E60001CEB040403F1FF356CD2A6456AD9023BA2
:100E7000644443EA0843A3FB0295A4EB0E04AC428E
:100E8000C846AE4656D353D056B1B0EB080264EB19
:100E90000E0404FA07F7CA40CC401743C6E90074B1
:100EA00018460021BDE8F087C3F1200102FA03FCD7
:100EB00020FA01F225FA01F19D402A434FEA1C472E
:100EC0001FFA8CFEB1FBF7F007FB1015110C41EA7D
:100ED000054100FB0EF58D4204FA03F408D91CEB22
:100EE000010100F1FF382FD28D422DD90238614423
:100EF000491B92B2B1FBF7F507FB151142EA01421B
:100F000005FB0EF1914208D91CEB020205F1FF38F6
:100F100016D2914214D9023D6244521A45EA004168
:100F200038E73146304608E73946E6E61046FBE644
:100F30004845A9D2B9EB020865EB0C0E013BA3E7CB
:100F40004546EAE72B4694E74046D1E7D0467BE7A3
:100F5000023D624432E708460AE76444023842E749
:100F6000704700BF0A4B1A6E42F001021A661A6EF1
:100F700082B002F001020092009A9A6D42F0805213
:100F80009A659B6D03F080530193019B02B07047FB
:100F90000010024010B50446A4B08C22002101A824
:100FA00005F006FC134B22689A4201D024B010BD14
:100FB0004FF400724FF4802301A80192199302F0BC
:100FC000CBFE98B90C4B996D41F0004199659B6D32
:100FD00003F000430022012100934120009B01F017
:100FE00083FD412001F0BEFD24B010BD04F0FCFDE6
:100FF000E8E700BF007C0040001002400000000055
:1010000010B50446AAB000218C2207A8CDE9021130
:10101000CDE90411069105F0CBFB1D4B22689A42E5
:1010200001D02AB010BD202307A8079302F094FE38
:1010300020BB184BDA6D42F00102DA65DA6D02F07E
:1010400001020092009ADA6C42F04002DA64DB6C32
:1010500003F040030193019B02F0D8F89FED0A7B57
:1010600000220323CDE904230B48082302A98DEDB8
:10107000027B069301F0ECFD2AB010BD04F0B4FD34
:10108000D7E700BFAFF3008080010000020000003E
:10109000008000400010024000180048074B026822
:1010A0009A4200D07047064A0648D36D23F00103E8
:1010B0004FF4C071D36501F0D3BE00BF0080004083
:1010C0000010024000180048094B02689A4200D004
:1010D000704703F5033382B09A6D42F002029A65BD
:1010E0009B6D03F002030193019B02B0704700BFA8
:1010F000000400400000000000B5174A016889B0F4
:1011000000239142CDE90233CDE90433069302D0A6
:1011100009B05DF804FB03F1804303F504339FED50
:101120000C7BDA6C42F00102DA64DB6C03F0010341
:10113000019302A902234FF090408DED027B019AAA
:10114000069301F085FD09B05DF804FBAFF3008064
:10115000800000000200000000040040FEE700BF25
:10116000FEE700BFFEE700BFFEE700BFFEE700BFEF
:10117000704700BF704700BF704700BF01F05EBB03
:10118000014801F017BD00BF64060220014801F0CC
:101190006DBB00BFFC0102204FF4006001F016BFE0
:1011A000014801F08BBF00BFAC0602200120704750
:1011B00008B505F009FB162303604FF0FF3008BDAA
:1011C00008B505F001FB16230360FEE770B5161E97
:1011D00007DD0C468D19AFF3008004F8010BA54222
:1011E000F9D1304670BD00BF70B5161E07DD0C4644
:1011F0008D1914F8010B04F035FDAC42F9D13046DD
:1012000070BD00BF4FF0FF30704700BF4FF4005378
:101210004B600020704700BF0120704700207047DE
:101220000C490D4A0B6810B50C4C121B2BB118441D
:10123000904207D80860184610BD094B0B6018444F
:101240009042F7D905F0C0FA0C2303604FF0FF334A
:10125000184610BDF4010020000005200004000025
:1012600008090220034AD2F8883043F47003C2F818
:101270008830704700ED00E0DFF834D0FFF7F2FF70
:101280000C480D490D4A002302E0D458C4500433E1
:10129000C4188C42F9D30A4A0A4C002301E01360B7
:1012A0000432A242FBD305F095FA04F051FAFEE7AE
:1012B0000000052000000020D40100200CB302082B
:1012C000D801002008090220FEE700002DE9F047C0
:1012D0005FEA93091FD014464F468E468446DCF8D9
:1012E0000060DEF800A0DCF80450DEF804800CF1A9
:1012F000080C0EF1080E96FA1AF6266095FA18F503
:10130000013F656004F10804E9D100EBC90001EB7D
:10131000C90102EBC90213F0030318D0B0F9004071
:10132000B1F9005094FA15F4013B14800FD0B0F9D4
:101330000240B1F9025094FA15F4012B548006D002
:10134000B0F90430B1F9041093FA11F39380BDE8B9
:10135000F08700BF10B5940827D000F1100C01F100
:101360001003A6465CED047A77EE807A0CF1100C3F
:1013700043ED047A5CED077A77EE807ABEF1010ED8
:1013800043ED037A5CED067A77EE807A03F1100381
:1013900043ED067A5CED057A77EE807A43ED057AC7
:1013A000E0D100EB041001EB041112F0030215D0A0
:1013B000D0ED007A77EE807A013AC1ED007A0DD057
:1013C000D0ED017A77EE807A012AC1ED017A05D05D
:1013D000D0ED027A77EE807AC1ED027A10BD00BFBF
:1013E00010B5940827D000F1100C01F11003A646A7
:1013F0001CED036A1CED027A5CED017A5CED046A77
:1014000020EE066A20EE077A60EE277A66EE806AA2
:10141000BEF1010E03ED036A43ED046A03ED027AA7
:1014200043ED017A0CF1100C03F11003E0D100EB55
:10143000041001EB041112F0030215D0D0ED007A74
:1014400067EE807A013AC1ED007A0DD0D0ED017AD5
:1014500067EE807A012AC1ED017A05D0D0ED027ADB
:1014600067EE807AC1ED027A10BD00BF00292DE938
:10147000F0414FEA93064DDB7EB300F1080E1446AF
:1014800035463EF908CC3EF9067C0CFA01FC0CF31B
:101490000F0C1FFA8CFC8F4007F30F074CEA074C28
:1014A000C4F800C03EF904CC3EF9027C0CFA01FC01
:1014B0000CF30F0C1FFA8CFC8F40013D07F30F0754
:1014C0004CEA074CC4F804C00EF1080E04F10804FD
:1014D000D7D100EBC60002EBC60213F0030317D00E
:1014E000B0F90040013B04FA01F404F30F04148046
:1014F0000ED0B0F90240012B04FA01F404F30F04FA
:10150000548005D0B0F904308B4003F30F0393806F
:10151000BDE8F08146B3C1F1000C00F108051746A3
:10152000B64635F9084C35F9068C44FA0CF448FAFD
:101530000CF8A4B244EA08443C6035F9044C35F98F
:10154000028C44FA0CF4A4B248FA0CF844EA0844B9
:10155000BEF1010E7C6005F1080507F10807E0D136
:1015600000EBC60002EBC60213F00303D0D0B0F9C3
:10157000004049420C41013B1480C9D0B0F90240FF
:10158000012B44FA01F45480C2D0B0F904300B416D
:101590009380BDE8F08100BF2DE9F0475FEA930931
:1015A0001FD014464F468E468446DCF80060DEF8B5
:1015B00000A0DCF80450DEF804800CF1080C0EF1F9
:1015C000080ED6FA1AF62660D5FA18F5013F6560BE
:1015D00004F10804E9D100EBC90001EBC90102EBF9
:1015E000C90213F0030318D0B0F90040B1F900505C
:1015F000D4FA15F4013B14800FD0B0F90240B1F9D0
:101600000250D4FA15F4012B548006D0B0F90430FE
:10161000B1F90410D3FA11F39380BDE8F08700BF4D
:101620002DE9F04F5FEA920983B0174606468846D7
:101630003BD001F10805CB4604460DF1040A2068B1
:1016400020FB00F05146400800F03EF9BDF906309D
:1016500025F8083C606820FB00F05146400800F087
:1016600033F9BDF9063025F8063CA06820FB00F0F0
:101670005146400800F028F9BDF9062025F8042C51
:10168000E368103423FB03F35808514600F01CF9BB
:10169000BDF9063025F8023CBBF1010B05F1080548
:1016A000CDD106EB091608EBC90817F0030711D0D6
:1016B00006EB87070DF1040A56F8040B20FB00F037
:1016C0005146400800F000F9BDF9063028F8023B09
:1016D000BE42F1D103B0BDE8F08F00BF2DE9F04765
:1016E0009F0864D014463E460D468646D5F800A0B5
:1016F000DEF80080DEF8049018FB0AFC4FEAEC3CB0
:1017000018FB2AF80CF30F0C1FFA8CFC4FEAE83890
:1017100008F30F084CEA084CC4F800C01AFB29FC77
:101720004FEAEC3C19FB3AF90CF30F0C1FFA8CFC56
:101730004FEAE93909F30F094CEA094CC4F804C02F
:10174000D5F80490DEF808A0DEF80C801AFB09FC3E
:101750004FEAEC3C1AFB29FA0CF30F0C1FFA8CFC35
:101760004FEAEA3A0AF30F0A4CEA0A4CC4F808C0F6
:1017700019FB28FC10344FEAEC3C18FB39F80CF349
:101780000F0C1FFA8CFC4FEAE838013E08F30F08F3
:101790004CEA084C0EF1100E05F1080544F804CC93
:1017A000A4D100EB071001EBC70102EB071213F005
:1017B000030335D0B1F90050048814FB05F4E41399
:1017C00004F30F0414804488013B14FB05F44FEA32
:1017D000E43404F30F04548022D0B1F90250848819
:1017E00014FB05F4E41304F30F049480C488012B64
:1017F00014FB05F44FEAE43404F30F04D4800FD053
:10180000B1F90410038913FB01F3DB1303F30F0396
:101810001381438913FB01F3DB1303F30F0353819C
:10182000BDE8F0879FED237ADFED236AF5EE007ABD
:10183000E0EE077AB4EEE60AF1EE10FABDEEE77AD2
:1018400004D517EE103A013B07EE103AB8EEC77A0E
:10185000DFED1A6A77EEC77A67EEA67ABCEEE77A12
:1018600017EE103A9BB2B3F5007F1AD207EE103A8A
:10187000B8EE477A591C37EEC70A114AF7EE006AEC
:1018800002EB810137EE267AD1ED006A02EB83028A
:1018900037EE677A20EE260AD2ED007AA7EE270A05
:1018A000704777EEE67A9FED077AB0EE670A01217E
:1018B0000023E2E783F9223EDB0FC9BF00000044AA
:1018C000304501080000000000285CDDB0FA80FC13
:1018D00030B50CF1FF3E1EF0010416BFACF102035F
:1018E00000FA0EF098408316294A083B52F823303C
:1018F00083FB0325120F42EA051280FB0225D20F5B
:1019000042EA4502C2F1405282FB0325530F43EAEB
:10191000C50383FB0325120F42EA051280FB022553
:10192000D20F42EA4502C2F1405282FB0325530F17
:1019300043EAC50383FB0325120F42EA051280FB2D
:101940000225D20F42EA4502C2F1405282FB032334
:10195000520F42EAC30280FB0202000F40EA02106B
:1019600054B1ACF1020C0CEBDC7C4FEA6C0C40FA8D
:101970000CF30B60002030BD4FEA6E0E40FA0EF300
:101980000B60002030BD00234FF0FF300B6070472C
:10199000344D01082DE9F043074601F1FF385FEAB5
:1019A000980937F902CB4BD009F101060A30B6008D
:1019B0004FF0040E002530F9084CA445B8BFA446EA
:1019C00030F9064CB8BFAEF10305A445B8BFA44634
:1019D00030F9044CB8BFAEF10205A445A8BF644677
:1019E00030F902CCB8BF0EF1FF356445B8BF75467B
:1019F0000EF1040EA8BFA446764500F10800DAD126
:101A000007EBC90718F0030015D0B7F9004064458B
:101A1000C4BFA4460D1A01380DD0B7F90240A44541
:101A2000BCBF0D1AA446012805D0B7F904108C4597
:101A3000BCBF45468C46A2F800C01D60BDE8F083DF
:101A40004D46DFE770B5960836D000F1100C01F175
:101A5000080335461CED046A5CED036A1CED027A4E
:101A60005CED017ABEEEE86AFEEEE86ABEEEE87A68
:101A7000FEEEE87A013D16EE104A04F30F0E0CF16B
:101A8000100C23F808EC16EE904A04F30F0417EE3E
:101A900090EA0EF30F0E23F8064C23F802EC17EE33
:101AA000104A04F30F0403F1080323F80C4CD1D1BE
:101AB00001EBC60100EB061012F003021ED0D0EDC0
:101AC000007AFEEEE87A013A17EE903A03F30F033C
:101AD0000B8013D0D0ED017AFEEEE87A012A17EEE2
:101AE000903A03F30F034B8008D0D0ED027AFEEE5C
:101AF000E87A17EE903A03F30F038B8070BD00BFB6
:101B000029B32DE9F0414FF0000E961C32F81EC0AB
:101B100036F81E304FEA9C0C9B0830F81C7030F8E9
:101B2000138020F81C804FEA4C055C0020F81370ED
:101B300005F1020CA31C0EF1020E30F80C40C55A40
:101B400020F80C508E45C452E0D3BDE8F0817047B8
:101B5000B1F5807F31D018D9B1F5006F25D00CD9FF
:101B6000B1F5805F1ED1164B018099898181D3E93F
:101B70000132C0E9013200207047B1F5007F16D074
:101B8000B1F5806F0ED10F4BEEE7402911D003D98C
:101B9000802907D10C4BE7E710290CD0202901D16F
:101BA0000A4BE1E74FF0FF307047094BDCE7094B88
:101BB000DAE7094BD8E7094BD6E7094BD4E700BF72
:101BC000E4AD010884AD010894AD0108D4AD01086D
:101BD000B4AD0108F4AD010804AE0108A4AD0108DC
:101BE000C4AD01082DE9F04F4D0881B0164600EB59
:101BF000410749D00446DFF8AC8096463846214676
:101C00002A464FF0000C5EF8043BD1F8009099FA98
:101C10002CF9D0F800B09BFA2CFBD9FA1BFA99FAF0
:101C20002BF941F8049B23FB0AF943FB1AF303EA5F
:101C3000080343EA1943013A40F8043BE3D129463B
:101C400002233246204600F0FDF83846294602239A
:101C5000324600F0F7F804EBC5052046B0F9004025
:101C6000B0F90210B0F90420B0F906306400490060
:101C700052005B00048041808280C380083085422E
:101C8000ECD101B0BDE8F08F2946022300F0DAF86C
:101C9000022332462946384601B0BDE8F04F00F035
:101CA000D1B800BF0000FFFF2DE9F04F4D0881B013
:101CB000164600EB410749D00446DFF8AC80964653
:101CC000384621462A464FF0000C5EF8043BD1F816
:101CD000009099FA2CF9D0F800B09BFA2CFBD9FAB5
:101CE0001BFA99FA2BF941F8049B43FB0AF923FBF1
:101CF0001AF303EA080343EA1943013A40F8043BA4
:101D0000E3D1294602233246204600F041FA384604
:101D100029460223324600F03BFA04EBC505204673
:101D2000B0F90040B0F90210B0F90420B0F9063063
:101D30006400490052005B00048041808280C380BF
:101D400008308542ECD101B0BDE8F08F294602236E
:101D500000F01EFA022332462946384601B0BDE89B
:101D6000F04F00F015BA00BF0000FFFF012A70B568
:101D7000B0F800C004460E461D4635D0BCF5807F45
:101D80002BD008D9BCF5006F1BD020D9BCF5805FE3
:101D900023D04DB970BDBCF1400F1ED00BD9BCF1A2
:101DA000800F0ED0002DF5D0A268A1893046BDE885
:101DB0007040FFF7A5BEBCF1100F0ED0BCF1200F94
:101DC000E7D1626861463046FFF70CFFE1E7BCF5FA
:101DD000007FF6D0BCF5806FDBD1626801236146DD
:101DE000304600F02FF8D4E7BCF5807F22D007D929
:101DF000BCF5006F12D017D9BCF5805FC9D119E0CE
:101E0000BCF1400F16D003D9BCF1800F06D0C0E75B
:101E1000BCF1100F0ED0BCF1200FBAD16268614640
:101E20003046FFF741FFB4E7BCF5007FF6D0BCF5C4
:101E3000806FAED1626801236146304600F0A8F998
:101E4000A7E700BF2DE9F04F93B0012B019110924D
:101E50000A464FEA9101119122F0030100EB41047F
:101E60000F90024600930844214440F02181109FC6
:101E7000C64E0F9DDDF844A0BB46BC460023D5F8F6
:101E8000009099FA23F999FA23F9226892FA23F239
:101E900092FA23F299FA12FED9FA12F9026892FA2A
:101EA00023F292FA23F2D1F8008098FA23F898FAF4
:101EB00023F892FA18F29EFA22F845F8048BDEFA1B
:101EC00012F25BF808EB2EFB02F84EFB12FE0268E2
:101ED00092FA23F292FA23F20EEA060E4EEA184E16
:101EE00040F804EBD1F800E09EFA23FE9EFA23FEB0
:101EF000D2FA1EF2A9FA12F8E9FA12F957F8042BED
:101F000022FB09FE42FB19F2324042EA1E4244F82B
:101F1000042B5CF80C2B22FB08FE42FB18F232402B
:101F200042EA1E42BAF1010A41F8042BA7D1119AE4
:101F3000009B042A4FEA830340F22481DFF84CB26D
:101F40000E920E9902910A469700019A89088A42D8
:101F500028BF0A460C9203EB430292000D929A00AE
:101F6000DB0009920B930F9A109B0893CDE906337F
:101F700088000592002302EBC1020E910A900492A0
:101F80000393089B059AD3F800A0079BDDF80CE0AB
:101F9000D3F80090069BCDF800E0D3F800800A9BB0
:101FA00016469818049A1546991832682C6892FAC1
:101FB00014F3D2FA14F20468D1F800C094FA1CF4B5
:101FC00093FA24FC4FF0000E9CFA2EFCC6F800C0D9
:101FD0003E44D3FA24F329FB03F449FB13F303EA49
:101FE0000B0343EA1443046803600B683844D4FAD3
:101FF00013F3A2FA23F4E2FA23F32AFB03F24AFBD7
:1020000013F303EA0B0343EA12432B603D4428FB1E
:1020100004F348FB14F404EA0B04009A44EA134462
:10202000029B0C601A44019B009293423944BCD835
:10203000DDE908210A4408920B99079A039B0A4498
:1020400007920D99069A0A440692059A043205925F
:10205000049A043204920C9A01339342039390D36E
:102060000E9A099B042A3FF66CAF119E0F9B1A68CB
:1020700059689F68DC6892FA17F091FA14F590FAA3
:1020800025F51D6091FA14F5D0FA25F05860D2FAC2
:1020900017F2D1FA14F1E2FA21F09860A2FA21F2D3
:1020A000013EDA6003F11003E1D113B0BDE8F08F17
:1020B0000025364EDDF84490109F9C4690462B46F6
:1020C000D8F800B09BFA23FB9BFA23FB226892FA14
:1020D00023F292FA23F29BFA12FEDBFA12FB026859
:1020E00092FA23F292FA23F2D1F800A09AFA23FA94
:1020F0009AFA23FA92FA1AF29EFA22FA48F804ABF4
:10210000DEFA12F257F835E02EFB02FA4EFB12FE11
:10211000026892FA23F292FA23F20EEA060E4EEACF
:102120001A4E40F804EBD1F800E09EFA23FE9EFA26
:1021300023FED2FA1EF2ABFA12FAEBFA12FB57F8B0
:10214000252022FB0BFE42FB1BF2324042EA1E42DC
:1021500044F8042B05EB450257F8222022FB0AFE27
:1021600042FB1AF2324042EA1E42B9F1010941F83B
:10217000042B6544A4D1119A009B042A4FEA8303DF
:102180003FF6DCAE0F9B164671E700BF0000FFFF75
:102190002DE9F04F93B0012B019110920A464FEABE
:1021A0009101119122F0030100EB41040F900246CE
:1021B00000930844214440F02181109FC64E0F9D9A
:1021C000DDF844A0BB46BC460023D5F8009099FA40
:1021D00023F999FA23F9226892FA23F292FA23F268
:1021E00099FA12FED9FA12F9026892FA23F292FAD7
:1021F00023F2D1F8008098FA23F898FA23F892FA9B
:1022000018F29EFA22F845F8048BDEFA12F25BF817
:1022100008EB4EFB02F82EFB12FE026892FA23F244
:1022200092FA23F20EEA060E4EEA184E40F804EB3C
:10223000D1F800E09EFA23FE9EFA23FED2FA1EF2A7
:10224000E9FA12F8A9FA12F957F8042B42FB09FE31
:1022500022FB19F2324042EA1E4244F8042B5CF899
:102260000C2B42FB08FE22FB18F2324042EA1E42CF
:10227000BAF1010A41F8042BA7D1119A009B042A54
:102280004FEA830340F22481DFF84CB20E920E999C
:1022900002910A469700019A89088A4228BF0A4695
:1022A0000C9203EB430292000D929A00DB0009921C
:1022B0000B930F9A109B0893CDE906338800059283
:1022C000002302EBC1020E910A9004920393089B33
:1022D000059AD3F800A0079BDDF80CE0D3F8009036
:1022E000069BCDF800E0D3F800800A9B16469818AC
:1022F000049A1546991832682C6892FA14F3D2FAA7
:1023000014F20468D1F800C094FA1CF493FA24FC87
:102310004FF0000E9CFA2EFCC6F800C03E44D3FAE3
:1023200024F349FB03F429FB13F303EA0B0343EA09
:102330001443046803600B683844D4FA13F3E2FAD8
:1023400023F4A2FA23F34AFB03F22AFB13F303EA72
:102350000B0343EA12432B603D4448FB04F328FB84
:1023600014F404EA0B04009A44EA1344029B0C6040
:102370001A44019B009293423944BCD8DDE90821FC
:102380000A4408920B99079A039B0A4407920D99F5
:10239000069A0A440692059A04320592049A043277
:1023A00004920C9A01339342039390D30E9A099BA3
:1023B000042A3FF66CAF119E0F9B1A6859689F68FC
:1023C000DC6892FA17F091FA14F590FA25F51D6081
:1023D00091FA14F5D0FA25F05860D2FA17F2D1FA32
:1023E00014F1A2FA21F09860E2FA21F2013EDA60DB
:1023F00003F11003E1D113B0BDE8F08F0025364E94
:10240000DDF84490109F9C4690462B46D8F800B0CB
:102410009BFA23FB9BFA23FB226892FA23F292FA9F
:1024200023F29BFA12FEDBFA12FB026892FA23F205
:1024300092FA23F2D1F800A09AFA23FA9AFA23FA30
:1024400092FA1AF29EFA22FA48F804ABDEFA12F275
:1024500057F835E04EFB02FA2EFB12FE026892FAA4
:1024600023F292FA23F20EEA060E4EEA1A4E40F8D2
:1024700004EBD1F800E09EFA23FE9EFA23FED2FA86
:102480001EF2EBFA12FAABFA12FB57F8252042FBC8
:102490000BFE22FB1BF2324042EA1E4244F8042BA0
:1024A00005EB450257F8222042FB0AFE22FB1AF2F6
:1024B000324042EA1E42B9F1010941F8042B654459
:1024C000A4D1119A009B042A4FEA83033FF6DCAEA5
:1024D0000F9B164671E700BF0000FFFFB1F5007FBC
:1024E00030B45BD021D9B1F5805F3AD010D9B1F5C5
:1024F000005F32D12D4C0160C4602D492D4C012567
:102500000271437185600461416130BC00207047F5
:10251000B1F5806F2CD0B1F5006F1ED1234C016056
:10252000C4602549234C0425EAE7802927D009D92E
:10253000B1F5807F11D11D4C0160C4601F491D4C55
:102540002025DDE7202921D0402906D1174C016044
:10255000C4601B49174C8025D2E74FF0FF3030BCD8
:102560007047124C0160C4601649124C0225C7E73F
:102570000E4C0160C46014490E4C0825C0E70B4C9A
:102580000160C46011490B4C4025B9E7074C01605C
:10259000C4600F49074C4FF48075B1E7034C0160EC
:1025A000C4600C49034C1025AAE700BF30C50008E1
:1025B000E4AD01083005010884AD010894AD0108BF
:1025C000D4AD0108B4AD0108F4AD010804AE0108B2
:1025D000A4AD0108C4AD01082DE9F04F83B001F1AD
:1025E000804E0C9C0D9D0EF1FF3E4FEA8E0604EBD3
:1025F000C10C013902EB850203EB8503019600EB68
:102600008E0E2BD0012DACF1040C00F104043CD152
:102610000C9DACF1040C05F1080854F8045B52F869
:10262000049B45FB09F65EF8047953F804AB27FBDD
:102630000A6647FB1AF725FB19752D1428F8025C6A
:1026400036146D42013928F8046CACF1040CACF876
:102650000A50ACF8086008F10408DED1B0F90210A5
:10266000B0F900300C9C019A5B1A224400215B10E7
:102670009380D180B0F90030B0F90220618013441A
:102680005B10238003B0BDE8F08F4FEA850B0C9DF3
:10269000ACF1040C05F1080854F8045BD2F8009082
:1026A00045FB09F65EF80479D3F800A027FB0A661B
:1026B00047FB1AF725FB19752D1428F8025C361410
:1026C0006D42013928F8046C5B44ACF80460ACF846
:1026D00006505A4408F10408ACF1040CDCD1BDE703
:1026E0002DE9F04F054617462A792C684069012AE2
:1026F00083B00E464FEA54040ED06B79FFF736FBD9
:10270000AB680193D5E90323214600973046FFF7D4
:1027100063FF03B0BDE8F08FD5E90331D5F808C0F9
:1027200006EB840E04B3BCF1010F4FEA8C0BB846E4
:1027300027D15EF804C951F804BB4CFB0BF956F8DD
:1027400004AB53F8042B2AFB02992CFB1BFCCCF1A5
:10275000000C42FB1AC2120C120442EA1942013C5C
:1027600048F8042BE5D12A796B793946FFF7FEFA50
:102770002B683A460121384603B0BDE8F04FFEF71A
:1027800075BE07EE900A5EF804C908684CFB00F9B4
:1027900056F804AB1A682AFB02992CFB10FCCCF10A
:1027A000000C42FB1AC2120C120442EA1942013C0C
:1027B00048F8042B59445B44E5D117EE900AD2E760
:1027C00038B50F4B1B780BB9012038BD0D494FF4BC
:1027D0007A720546B2FBF3F30868B0FBF3F000F041
:1027E000CFF904460028EFD10F2DEDD80246294637
:1027F0004FF0FF3000F078F9034B20461D6038BDE4
:102800000400002000000020080000200A4A13688D
:1028100043F4807310B50320136000F053F90F20C8
:10282000FFF7CEFF10B10124204610BD0446FEF78D
:1028300099FB204610BD00BF00200240034A044B14
:1028400011681B780B441360704700BFF80100202B
:1028500004000020014B1868704700BFF8010020F9
:10286000704700BF704700BF704700BFF8B50368EE
:102870008C4A1D685E689768A907044607F01F0721
:1028800002D5B20700F19F80690779D5720777D525
:10289000A26DD20603D4A26D42F40072A265DA687A
:1028A00012F4406F1CD1804A934200F0DC80DA6859
:1028B000900415D41A68110712D59A68520700F1CE
:1028C000DF805A6822F00C025A60A36D23F48073F3
:1028D000A365A36DDB0403D4A36D43F00103A365DB
:1028E0002046FFF7BDFF23680C221A60A8064DD5CD
:1028F000B1064BD5A26DD10603D4A26D42F40052AD
:10290000A2656949DA6CD8688B4202F0C00268D0CF
:10291000D968D2B98A0100F19E801A68500614D590
:10292000890212D49A68120700F1B3805A6822F023
:1029300060025A60A36D23F48053A365A36DD8058C
:1029400003D4A36D43F00103A365204600F0B0F863
:10295000236860221A60290601D5320654D4E8059E
:1029600001D5F1055BD4AA0501D5B00540D4E9062F
:1029700001D5F2060FD46D0501D570055BD4F8BD05
:102980002807B3D5310783D4A806B1D46A06E2D5A7
:102990007006E0D5AEE7626B32B1002F6CD0414AD1
:1029A000926812F4604F0BD0A36D43F48063A3656B
:1029B000E36D43F00203E3652046FFF755FF23680C
:1029C00010221A60D7E7836DD80603D4A36D43F4B1
:1029D0000063A365204600F073F8236802221A60A2
:1029E00052E7C121F940C90792D43049C96890E73C
:1029F000A36D43F48023A365204600F05FF82368AD
:102A00004FF400721A60B2E7A36D43F48033A365FC
:102A10002046FFF727FF236880221A609FE7A36DF7
:102A200043F40033A365204600F046F823684FF4D2
:102A300080721A6097E7A26D42F48042A265E26D4F
:102A40004FF4806142F00802E26520461960BDE85B
:102A5000F84000F02FB800F4406001F40052024347
:102A60007FF473AF59E740F22122FA40D2073FF5D5
:102A70001EAF0E4AD2681BE7DA68D707A0D593E7E6
:102A8000A36D43F01003A365E36D43F00103E36519
:102A900026E7A36D43F01003A365E36D43F0010344
:102AA000E36552E7000304500001045000000450A5
:102AB000704700BF704700BF704700BF704700BF3E
:102AC000704700BF0749CA6803024FF6FF0003F4CE
:102AD000E0630240134343F0BF6343F40033CB6031
:102AE000704700BF00ED00E01C4BDB68C3F302231E
:102AF00000B5C3F1070EBEF1040F03F1040C28BFAB
:102B00004FF0040EBCF1060F1BD9033B4FF0FF3C06
:102B10000CFA03FC22EA0C024FF0FF3C0CFA0EFC0C
:102B200021EA0C019940002841EA02010CDB00F186
:102B30006040090100F56140C9B280F800135DF8FA
:102B400004FB00221346E7E7054B00F00F000901E4
:102B50000344C9B219765DF804FB00BF00ED00E044
:102B6000FCEC00E0002807DB044A4109012300F0E7
:102B70001F00834042F82130704700BF00E100E0B1
:102B80000138B0F1807F10D210B44FF0E023084C30
:102B900058614FF0F00C84F823C000220721104642
:102BA0009A615DF8044B196170470120704700BFBE
:102BB00000ED00E070B4436C066C056831682C6869
:102BC00003F01C0304229A400A420ED014F0040FB2
:102BD0000BD02B689B0603D42B6823F004032B60D7
:102BE000036B7260CBB170BC184702229A400A4254
:102BF00015D014F0020F12D02B68990606D42B685A
:102C000023F00A032B60012380F82530C36A726029
:102C1000002180F82410002BE5D170BC70470822F9
:102C20009A400A42F9D02207F7D52A68416B22F070
:102C30000E022A60012202FA03F300247360C263C9
:102C400080F8244080F825200029E6D070BC084791
:102C50002DE9F04F0C6885B0002C00F08C804FF00F
:102C6000000CDFF8F4B1DFF8F4A1634688460126D2
:102C70009E4016EA040977D0D8F8045005F0030204
:102C8000511E01297AD9032A40F0B58002FA0CF2CC
:102C9000D143066831400A4315F4403F026063D0D7
:102CA000DBF8602042F00102CBF86020DBF8602006
:102CB00002F001020392039A23F0030202F1804220
:102CC00002F5803203F003069168B6000F27B74083
:102CD000B0F1904F21EA07011FD0584FB84200F0E1
:102CE0009480574FB84200F09580564FB84200F09C
:102CF0008780554FB84200F09780544FB84200F09B
:102D00009880534FB84200F08A80524FB8420CBFAF
:102D10000727082707FA06F631439160DAF80820FA
:102D20006FEA0901EE0254BF0A4049EA0202CAF8FA
:102D30000820DAF80C20AF0254BF0A4049EA020228
:102D4000CAF80C20DAF80420AE0354BF0A4049EA5E
:102D50000202CAF80420DAF80020ED0354BF0A404A
:102D600049EA0202CAF80020013334FA03F20CF1F6
:102D7000020C7FF47CAF05B0BDE8F08FD0F808E01E
:102D8000D8F80C10032707FA0CF72EEA070E01FA01
:102D90000CF141EA0E018160F943476827EA060712
:102DA000C5F300169E403E434660C768D8F80860E9
:102DB0000F4006FA0CF63E43022AC66002FA0CF2F5
:102DC0007FF467AFDF0800EB870703F0070E3E6A6A
:102DD0000096D8F810604FEA8E0E06FA0EF60196AD
:102DE0000F2606FA0EFE009E26EA0E0E019E46EA09
:102DF0000E063E624DE7032101FA0CF1C943D4E708
:102E0000032707FA06F6314387E7012707FA06F694
:102E1000314382E7022707FA06F631437DE70627AA
:102E200007FA06F6314378E7042707FA06F6314336
:102E300073E7052707FA06F631436EE700040048FA
:102E400000080048000C004800100048001400482A
:102E500000180048001C0048001002400004014017
:102E6000002900F099802DE9F04F4C4FDFF8449194
:102E7000DFF844A183B000234FF0010808FA03F201
:102E800012EA010E65D023F0030505F1804505F532
:102E9000803503F00304D5F808C0A4000F26A6402F
:102EA000B0F1904F019606EA0C0C19D0484557D066
:102EB000504558D03A4EB0425FD03A4EB04261D001
:102EC000394EB04254D0394EB04260D0384EB04244
:102ED00014BF4FF0080B4FF0070B0BFA04F400E09F
:102EE0000024A44514D13C68019E24EA0E043C60F1
:102EF0007C6824EA0E047C60FC6824EA0E04FC6012
:102F0000BC6824EA0E04BC60AC6824EA0604AC6029
:102F100005685E000324B44025430560DD0800EB2E
:102F2000850503F0070E2E6A4FEA8E0E4FF00F0C48
:102F30000CFA0EFC26EA0C062E62856825EA0405CA
:102F40008560456825EA02024260C26822EA0402FE
:102F5000C260013331FA03F290D103B0BDE8F08FC3
:102F600008FA04F4BDE74FF0020B0BFA04F4B8E7DB
:102F70004FF0050B0BFA04F4B3E74FF0030B0BFA19
:102F800004F4AEE74FF0040B0BFA04F4A9E74FF09A
:102F9000060B0BFA04F4A4E7704700BF00040140DD
:102FA000000C0048001000480014004800180048B9
:102FB000001C004800040048000800480AB1816174
:102FC00070478162704700BF704700BF044A516973
:102FD000014200D1704708B55061FFF7F5FF08BD09
:102FE00000040140002857D0F8B590F83630044668
:102FF00003F0FF02002B4AD065682068A76A02230D
:1030000084F83630012DC1683ED0B7F5000F3BD0B3
:103010006269266A4FF6FF739A42A36843EA050382
:1030200043EA0603666A18BF21F4604143EA0603D7
:103030001A4E18BF21F0C0013B430E403343DDB1AF
:10304000012D1DD1D4E9031529430B434FF6FF7120
:103050008A4204D0A1690A43E1690A431343104A32
:10306000C3609042E36A04BF226B134303620123EF
:1030700084F836300020F8BDE169256929430B4307
:10308000B7F5000FE2D1DDE721F01E01C0E780F8BF
:103090003520FDF77FFFAFE701207047FEF119FFF4
:1030A000007C0040704700BF704700BF704700BF02
:1030B000704700BF704700BF704700BF03681A68C1
:1030C000D10710B5044602D59A68D2072AD41A68E7
:1030D000900702D59A6891072AD41A68520702D538
:1030E0009A6850072BD41A68110702D59A681207FC
:1030F0002CD41A68D00602D59A68D1062DD41A6845
:10310000920602D59A6890062ED41A68510602D506
:103110009A68520600D410BD40225A602046FFF73C
:10312000CBFF10BD01225A60FFF7BCFF2368CEE73A
:1031300002225A60204602F0C3FA2368CDE7042237
:103140005A602046FFF7B0FF2368CCE708225A6098
:103150002046FFF7ABFF2368CBE710225A602046DA
:10316000FFF7A6FF2368CAE720225A602046FFF730
:10317000A1FF2368C9E700BF024B186800F4C060D4
:10318000704700BF00700040B0F5007F0ED01C4AB1
:10319000136803F4C063B3F5806F2DD0136823F474
:1031A000C06343F4806300201360704714490B68C8
:1031B00003F4C063B3F5007F1ED00B68114A23F4FB
:1031C000C06343F400730B6013680F4A322000FBA6
:1031D00003F34869A2FB03239B0C400503F10103A1
:1031E00006D500E023B14A69520503F1FF33F9D453
:1031F000034B5B695B0501D40020704703207047D7
:10320000007000400000002083DE1B43024A536828
:1032100043F40073536070470070004030B5204D98
:10322000AB6DDB0083B004461CD5FFF7A5FFB0F5FE
:10323000007F29D0802C13D82FD0A4F17004B4FAC9
:1032400084F4640917490B6823F0070323430B60D8
:10325000086800F00700001B18BF012003B030BD54
:103260000324EFE7AB6D43F08053AB65AB6D03F028
:1032700080530193019BFFF77FFFAB6DB0F5007F9B
:1032800023F08053AB65D5D1802C04D9A02C8CBF02
:1032900002240124D6E70024D4E70224D2E700BFA9
:1032A0000010024000200240284A9368D26813F0C0
:1032B0000C0308D00C2B38D0042B34D0082B244816
:1032C00018BF00207047214A1168090754BFD2F87F
:1032D000942012681F4954BFC2F30322C2F30312A1
:1032E00051F8220003B30C2B2DD1184BDB6803F0EF
:1032F0000303022B25D0164A032B08BF1046134B9D
:10330000D968DA68DB68C3F34163C2F30622C1F30C
:103310000211013300FB02F201315B00B2FBF1F25A
:10332000B2FBF3F070470C48704702F00302012A29
:10333000C9D0064BDB6803F00303022B4FF00000FB
:10334000D9D10548DBE70020704700BF00100240DC
:1033500000127A00088700080024F400002800F01A
:103360008F822DE9F043944A03689568D668044635
:10337000D80683B005F00C0506F003062ED5002D07
:1033800000F023810C2D00F01D81A3698A4F002BD2
:1033900000F093813B6843F001033B60FFF75AFA6A
:1033A000804606E0FFF756FAA0EB0800022800F27C
:1033B00094813B689B07F5D53B6843F008033B606D
:1033C0003B68226A23F0F00313433B607B68E269A9
:1033D00023F47F4343EA02237B602368D90700F18B
:1033E000C280990723D5042D00F057810C2D00F0E1
:1033F0005181E368704E002B00F0DC81336843F4A8
:1034000080733360FFF726FA074605E0FFF722FADC
:10341000C01B022800F2618133685B05F6D5736832
:10342000226923F0FE4343EA0263736023681907AD
:1034300019D56369604E002B00F01881D6F89430DE
:1034400043F00103C6F89430FFF704FA074605E09D
:10345000FFF700FAC01B022800F23F81D6F8943033
:103460009A07F5D523685E073FD5534B9A6DD00078
:1034700000F19E819A6D42F080529A659B6D03F037
:1034800080530193019B01264C4F3B68D90540F1C5
:10349000F981A368012B00F09F81052B00F01D82AC
:1034A000454FD7F8902022F00102C7F89020D7F8B6
:1034B000902022F00402C7F89020002B40F0938166
:1034C000FFF7C8F941F28839804606E0FFF7C2F9F4
:1034D000A0EB0800484500F20081D7F8903098072B
:1034E000F4D4002E40F0E0812368990618D5636A71
:1034F000314E002B00F0A581D6F8983043F001033F
:10350000C6F89830FFF7A6F9074605E0FFF7A2F9DD
:10351000C01B022800F2E180D6F898309A07F5D552
:10352000A36A002B00F04281022B00F0EF800C2DEB
:1035300000F08C80204C236823F080732360FFF719
:1035400089F9054605E0FFF785F9401B022800F2DE
:10355000C480236813F00073F5D1E168184A0A406B
:103560001846E26073E0082D76D00C2D72D06368A7
:10357000B3F5803F00F0B580B3F5A02F00F0A08137
:103580000D4F3A6822F480323A603A6822F4802281
:103590003A60002B40F0AA80FFF75CF9804606E015
:1035A000FFF758F9A0EB0800642800F296803B680A
:1035B0009803F5D4236814E700100240007000401F
:1035C000FCFFEEFE012E7FF4E0AEA84B1B689907CE
:1035D00039D4A64B206A1A68120756BFD3F8943024
:1035E0001B681B0903F0F003984200F212819F4B05
:1035F0001A6842F008021A601A6822F0F0020243C8
:103600001A605A68E16922F47F4242EA01225A6054
:10361000002D00F04F81FFF747FE944B944A9B68C2
:10362000C3F30313D35C934A03F01F0320FA03F39D
:103630001068914A1360FFF7C3F840B92368D907AF
:103640007FF5CFAE8FE7A369002BC2D1012003B075
:10365000BDE8F083032E8AD1844A126892037FF575
:10366000C0AE6268002A7FF4BCAEEFE7D6F89430B3
:1036700023F00103C6F89430FFF7ECF8074604E0A6
:10368000FFF7E8F8C01B022827D8D6F894309B072C
:10369000F6D4E7E6022E7FF4ACAE744A1268520507
:1036A00002D5E268002AD1D0704920694A6822F028
:1036B000FE4242EA00624A60B9E63B6823F0010339
:1036C0003B60FFF7C7F880463B689807B6D5FFF721
:1036D000C1F8A0EB08000228F6D9032003B0BDE82A
:1036E000F083624A136843F480331360FFF7B2F843
:1036F000DFF87881074604E0FFF7ACF8C01B6428C8
:10370000EBD8D8F800309B03F6D553E7574EE26A62
:10371000F36803F00301914200F0ED800C2D95D089
:10372000524D2B685F0191D42B68DE008ED42B683C
:1037300023F080732B60FFF78DF8064604E0FFF757
:1037400089F8801B0228C8D82B689801F7D4E9684B
:103750004A4BE26A206B454E0B401343D4E90D12ED
:1037600043EA012343EAC263D4E90F12013849084E
:1037700043EA00130139520843EA4153013A43EA4C
:103780004263EB602B6843F080732B60EB6843F07F
:103790008073EB60FFF75EF8044604E0FFF75AF829
:1037A000001B022899D833689901F7D500204EE70D
:1037B000002669E6336823F480733360FFF74AF824
:1037C000074604E0FFF746F8C01B022885D8336897
:1037D0005805F7D423682AE6244AD2F8903043F0FB
:1037E0000103C2F89030FFF735F8DFF88080074614
:1037F00041F2883905E0FFF72DF8C01B48453FF638
:103800006CAFD8F890309B07F5D5002E3FF46CAE26
:103810004AE0FFF703FD00287FF418AF134B1A6846
:1038200042F008021A601A68216A22F0F0020A4384
:103830001A605A68E16922F47F4242EA01225A6022
:10384000E9E6D6F8983023F00103C6F89830FFF780
:1038500001F8074605E0FEF7FDFFC01B02283FF612
:103860003CAFD6F898309B07F5D459E600100240DB
:10387000F086000808000020000000208C809D01D8
:10388000012070473B6843F480733B60FEF7E2FF22
:1038900080463B68DA053FF5FCADFEF7DBFFA0EBA9
:1038A00008000228F5D918E7344A936D23F08053B5
:1038B000936519E6FFF7B2FC00283FF4ACAEC5E60D
:1038C00003F18043A3F53C331A6842F480221A6066
:1038D0001A6842F480321A6008E7284BD3F8902027
:1038E00042F00402C3F89020D3F8902042F0010285
:1038F000C3F8902077E7216B03F070020139B2EB37
:10390000011F7FF40BAF616B03F4FE42B2EB012F9A
:103910007FF404AFA16B03F07842B2EBC16F7FF488
:10392000FDAEE26B520803F4C001013AB1EB425F15
:103930007FF4F4AE226C520803F0C063013AB3EB9B
:10394000426F7FF4EBAE33689A013FF52FAF3368D7
:1039500043F080733360F36843F08073F360FEF7E5
:1039600079FF044605E0FEF775FF001B02283FF6CD
:10397000B4AE33689B01F6D518E700BF00100240D3
:10398000002800F09F80534A136803F007038B421E
:103990002DE9F0410D4604460CD2136823F00703CD
:1039A0000B431360136803F007038B4202D001201E
:1039B000BDE8F08123689E0771D54748A1688268F9
:1039C00002F0F002914204D9826822F0F0020A4328
:1039D0008260DA0726D562683F4B032A1B6865D0F0
:1039E000022A6CD0002A71D19B07E0D53A4EB36809
:1039F00023F003031343B360FEF72CFF41F2883832
:103A0000074604E0FEF726FFC01B40455CD8B368BC
:103A1000626803F00C03B3EB820FF3D123689E07B7
:103A200006D5A1682C48826802F0F0028A4240D88C
:103A300028490A6802F00702AA4209D90A6822F056
:103A400007022A430A600A6802F00702AA42AED1BE
:103A50005D0706D52049E0688A6822F4E0620243E7
:103A60008A60180707D51C4A2169936823F46053BC
:103A700043EAC1039360FFF717FC174A174C92689B
:103A80001749C2F303120346A25C164802F01F0254
:103A9000D340BDE8F04100680B60FEF791BED90746
:103AA000C6D562680C4B032A1B6899D198019DD436
:103AB0007DE7826822F0F0020A438260B8E799034A
:103AC00094D474E701207047032071E75F057FF508
:103AD0006EAF8BE70020024000100240F086000825
:103AE0000000002008000020054B064A9B6806499C
:103AF000C3F302230868D35C03F01F03D840704768
:103B0000001002400087000800000020054B064A14
:103B10009B680649C3F3C2230868D35C03F01F0304
:103B2000D8407047001002400087000800000020C5
:103B3000F8B5474BDA68920704460F4607D0DA68B3
:103B4000016802F003028A424BD00120F8BD0068F0
:103B5000022857D003284ED00128F6D11B689B07B6
:103B6000F4D53B496268CB6823F073030343013A01
:103B700043EA0213CB60364D2B6823F080632B6041
:103B8000FEF768FE064604E0FEF764FE831B022B88
:103B90003CD82B681A01F7D4002F39D1D4E902138D
:103BA0002A69DB0622F0784243EA012322F4FE422E
:103BB00013432B61264D2B6843F080632B60FEF787
:103BC00049FE064604E0FEF745FE831B022B1DD886
:103BD0002B681B01F7D52B69A269134300202B61C9
:103BE000F8BD002AB1D0DB684268C3F30213013389
:103BF0009342AAD1BFE71A689503B2D41B68590350
:103C0000A3D5AEE71B685E059FD5AAE70320F8BDE4
:103C1000012F2B690DD06269A16823F0C06352089F
:103C200023F4FE43013A43EA012343EA42632B6152
:103C3000C0E72269A16823F4C003520823F4FE43BD
:103C4000013A43EA012343EA42532B61B2E700BF42
:103C500000100240F8B53F4BDA68920704460F4661
:103C600007D0DA68016802F003028A424BD00120D3
:103C7000F8BD0068022857D003284ED00128F6D19D
:103C80001B689B07F4D533496268CB6823F0730344
:103C90000343013A43EA0213CB602E4D2B6823F015
:103CA00080532B60FEF7D6FD064604E0FEF7D2FDFA
:103CB000831B022B3CD82B689A00F7D4002F39D1F4
:103CC000D4E902136A69DB0622F0784243EA012351
:103CD00022F4FE4213436B611E4D2B6843F0805368
:103CE0002B60FEF7B7FD064604E0FEF7B3FD831B2D
:103CF000022B1DD82B689B00F7D56B6962691343B3
:103D000000206B61F8BD002AB1D0DB684268C3F3C4
:103D1000021301339342AAD1BFE71A689503B2D4C4
:103D20001B685903A3D5AEE71B685E059FD5AAE7BC
:103D30000320F8BD6B692269A16823F0C0635208B3
:103D400023F4FE43013A43EA012343EA42636B61F1
:103D5000C2E700BF001002402DE9F043036813F4EE
:103D6000006583B0044620D0816EB1F5000F00F0ED
:103D7000E08100F22E81002900F0B781B1F5800FBB
:103D800040F02B8100212030FFF764FF0546002D15
:103D900040F0DC81A16E2368B448D0F8882022F47A
:103DA00040020A43C0F888200025D80440F11A8157
:103DB000E16EB1F1007F00F0C28100F2788100294C
:103DC00000F08D81B1F1807F40F0A681002104F1E7
:103DD0002000FFF73FFF23688046B8F1000F40F056
:103DE0006E81A249E06ED1F8882022F04072024331
:103DF000C1F88820990300F1F980D90708D59B49BB
:103E0000A06BD1F8882022F003020243C1F8882079
:103E10009A0708D59549E06BD1F8882022F00C026A
:103E20000243C1F888205F0708D59049206CD1F87B
:103E3000882022F030020243C1F888201E0708D5EE
:103E40008A49606CD1F8882022F0C0020243C1F890
:103E50008820D80608D58549A06CD1F8882022F49E
:103E600040720243C1F88820990608D57F49E06C6A
:103E7000D1F8882022F440620243C1F888209A05D4
:103E800008D57A49206ED1F8882022F440220243D6
:103E9000C1F888205F0508D57449606ED1F8882084
:103EA00022F440120243C1F888205E0608D56F490B
:103EB000206DD1F8882022F440520243C1F88820B6
:103EC000180608D56949606DD1F8882022F440426F
:103ED0000243C1F88820D90508D56449A06DD1F8FE
:103EE000882022F440320243C1F88820DA0208D543
:103EF0005E49E06DD1F89C2022F003020243C1F834
:103F00009C209F0410D55949206FD1F8882022F0B9
:103F100040620243B0F1006FC1F8882000F0F280E7
:103F2000B0F1806F00F029811E0310D54F49606FFA
:103F3000D1F8882022F040620243B0F1006FC1F84E
:103F4000882000F0E480B0F1806F00F020815803F9
:103F500010D54649A06FD1F8882022F04062024374
:103F6000B0F1006FC1F8882000F0C780B0F1806F19
:103F700000F0F980590410D53C48E16FD0F8882052
:103F800022F040520A43B1F1805FC0F8882000F06F
:103F9000C680B1F1005F00F0DB801A0409D5334917
:103FA000D4F88000D1F8882022F080420243C1F882
:103FB0008820DB0309D52D4AD4F88410D2F8883044
:103FC00023F000430B43C2F88830284603B0BDE815
:103FD000F083B1F5400F3FF4DFAED8044FF0010598
:103FE0003FF5E6AEA84699037FF507AF1F4B9A6DE4
:103FF000D20066D54FF000091D4E336843F480733C
:104000003360FEF727FC074604E0FEF723FCC31BE2
:10401000022B62D83368DB05F7D5B8F1000F40F00A
:10402000C080124ED6F8903013F440732BD0D4F8E1
:1040300088209A4229D0D6F89010D6F8903043F4D0
:104040008033C6F89030D6F8903023F48033C6F829
:104050009030CF0721F44073C6F8903040F1A38030
:10406000FEF7F8FB41F28838074608E000100240EE
:1040700000700040FEF7EEFBC01B40452DD8D6F87F
:1040800090309807F6D5D4F888304849D1F8902078
:1040900022F440721343C1F89030B9F1000F04D0FC
:1040A000424A936D23F0805393652368A5E6B1F1EE
:1040B000407F31D1A846B8F1000F3FF492AE45469B
:1040C00091E79A6D42F080529A659B6D03F08053A0
:1040D0000193019B4FF001098EE70325DDE7201DC9
:1040E000FFF726FD2368804677E60430FFF720FDC2
:1040F0000546002D3FF44EAE28E0CA6842F4801217
:10410000CA6037E7CA6842F48012CA600CE7CA681E
:1041100042F48012CA601AE70125A84663E702212B
:10412000201DFFF705FD236800283FF436AF054644
:1041300033E71E48C26842F48032C2602CE61B4955
:10414000CA6842F48032CA60A84646E623682CE674
:10415000022104F12000FFF77DFD236800283FF4D1
:104160001CAF054619E70121201DFFF7E1FC23687C
:1041700000283FF4FFAE0546FCE60121201DFFF7B5
:10418000D7FC236800283FF4CFAE0546CCE60121DA
:10419000201DFFF7CDFC236800283FF4D8AE05466C
:1041A000D5E6454679E713466FE700BF00100240A9
:1041B000036A026A22F00102026270B444688269F2
:1041C0000D6822F4803222F073022A438D6823F0B6
:1041D00002032B43134DA8420FD005F50065A842FA
:1041E0000BD005F54065A84207D005F58065A842CB
:1041F00003D005F58065A8420DD1CD6823F00803F2
:104200002B43D1E9056524F4407446EA050C23F0FC
:1042100004034CEA040449684460826170BC416351
:1042200003627047002C0140036A026A22F4807224
:10423000026270B44468C2690D6822F4803222F0D0
:1042400073022A438D6823F4007343EA0523154D56
:10425000A84210D005F50065A8420CD005F54065D0
:10426000A8420FD005F58065A8420BD005F5806502
:10427000A8420FD106E0CD6823F4006343EA05238A
:1042800023F48063D1E9056524F4405446EA050C23
:1042900044EA0C1449684460C26170BCC1630362A3
:1042A000704700BF002C0140002800F0858010B549
:1042B00090F83D30044603F0FF02002B71D02268D5
:1042C0003E49022384F83D308A42136855D0B2F14A
:1042D000804F25D0A1F594318A4221D001F580612B
:1042E0008A421DD001F580618A4219D001F59431CE
:1042F0008A4242D001F540618A4257D001F580617F
:104300008A4253D001F580618A424FD0A069E168AA
:1043100023F08003034313606368D162936210E06B
:10432000A168206923F070030B4323F44073A16953
:10433000034323F08003E0680B4361681360D0629D
:1043400091620123536184F8483084F83E3084F848
:104350003F3084F8403084F8413084F8423084F8AB
:10436000433084F8443084F8453084F8463084F88B
:10437000473084F83D30002010BDA068216923F04B
:104380007003034323F440730B43A16923F08003BC
:104390000B431360E368D3626368936263691363DA
:1043A000CFE780F83C20FCF78FFE88E72069A16901
:1043B00023F440730343E9E701207047002C0140D8
:1043C000704700BF002800F0858010B590F83D30A0
:1043D000044603F0FF02002B71D022683E490223FD
:1043E00084F83D308A42136855D0B2F1804F25D011
:1043F000A1F594318A4221D001F580618A421DD015
:1044000001F580618A4219D001F594318A4242D087
:1044100001F540618A4257D001F580618A4253D04C
:1044200001F580618A424FD0A069E16823F08003E2
:10443000034313606368D162936210E0A16820694E
:1044400023F070030B4323F44073A169034323F06B
:104450008003E0680B4361681360D06291620123BE
:10446000536184F8483084F83E3084F83F3084F853
:10447000403084F8413084F8423084F8433084F886
:10448000443084F8453084F8463084F8473084F866
:104490003D30002010BDA068216923F07003034364
:1044A00023F440730B43A16923F080030B43136093
:1044B000E368D3626368936263691363CFE780F84C
:1044C0003C20FFF77DFF88E72069A16923F4407352
:1044D0000343E9E701207047002C014010290AD866
:1044E000DFE801F0590909095F09090967090909A4
:1044F0006C090909750090F84330012B4FD1102940
:104500000AD8DFE801F08B09090952090909740981
:104510000909700909096C00022380F84330036817
:104520000122186A01F01F0102FA01F120EA0100DC
:104530001862186A3B4A0143934219625BD002F544
:104540000062934265D002F54062934261D002F569
:10455000806293425DD002F58062934259D0B3F1FC
:10456000804F4CD0304A934249D002F5806293424A
:1045700045D002F58062934241D002F594329342D5
:104580003DD002F54062934239D01A6842F00102F0
:1045900000201A60704790F83E30012B3ED0012079
:1045A000704790F83F30012BF9D1022380F83F305B
:1045B000B5E790F84030012BA1D0F0E790F84130FA
:1045C000013B18BF0123002B99D00120704790F8C0
:1045D0004230013B18BF0123002B90D0F5E70223A6
:1045E00080F842309BE7022380F8413097E70223AE
:1045F00080F8403093E75A6C42F400425A6499685C
:104600000A4A0A40062A02D0B2F5803FBDD10020F6
:1046100070475A6C42F400425A64A0E7022380F8C3
:104620003E307CE7002C0140000400400700010000
:1046300090F83C30012B73D0024630B4022304685A
:1046400082F83D30012082F83C00A5684F4B2B409A
:10465000A3600B68602B65D024D8402B7CD04BD94D
:10466000502B17D14B68CD68216A21F00A011943FC
:10467000236A23F001032362A36923F0F00343EAD2
:104680000513A3612162A36823F0700343F057036D
:104690000020A3600121002382F83D1082F83C3005
:1046A00030BC7047B3F5805F38D0B3F5005F10D1F0
:1046B000D1E90153A0682B43CD6820F47F4143EA40
:1046C00005230B43A360A36843F480430020A36049
:1046D000E0E7702BDED1D1E90153A0682B43CD6810
:1046E00020F47F4143EA05230B43A360A36843F012
:1046F00077030020A360CDE7202B02D00AD9302B0E
:10470000C8D1A16821F070010B4343F007030020DA
:10471000A360BFE733F01001BCD1F2E70020B9E796
:1047200002207047236A4868CD68216A21F0100191
:104730002162A16923F0A00321F4704143EA001330
:1047400041EA0531A1612362A36823F0700343F0BD
:1047500067030020A3609DE74B68CD68216A21F0C4
:104760000A011943236A23F001032362A36923F09A
:10477000F00343EA0513A3612162A36823F07003E9
:1047800043F047030020A36084E700BF8800FEFFDA
:10479000036A026A22F01002026270B444688269FD
:1047A0000D6822F0807222F4E64242EA05228D680A
:1047B00023F0200343EA0513144DA84210D005F559
:1047C0000065A8420CD005F54065A8420FD005F55C
:1047D0008065A8420BD005F58065A8420FD106E0A0
:1047E000CD6823F0800343EA051323F04003D1E9A9
:1047F000056524F4406446EA050C44EA8C044968E3
:104800004460826170BC816303627047002C014088
:1048100090F83C30012B00F02F81012370B5044645
:104820000D4680F83C30142A16D8DFE812F05F00FD
:1048300015001500150074001500150015008A00FC
:104840001500150015009F00150015001500E30068
:104850001500150015001B000022012384F83C20E0
:10486000184670BD02682E68136A116A21F480111F
:1048700011625068516D21F0807121F4E04141EAEC
:104880000621AE6823F4001343EA06537C4EB2427D
:104890000FD006F50066B2420BD006F54066B24274
:1048A00007D006F58066B24203D006F58066B242B4
:1048B00004D16E6920F4802040EA86205060516562
:1048C0006968D1651362536D286943F400635365C9
:1048D000516D21F480615165516D41EA00215165AE
:1048E0000022002384F83C20184670BD0068FFF7C2
:1048F0005FFC8369296943F008038361826922F0C0
:104900000402826182690A4382610022002384F8E2
:104910003C20184670BD0068FFF73AFF836929699B
:1049200043F400638361826922F480628261826958
:1049300042EA012282610022002384F83C201846CA
:1049400070BD0068FFF770FCC369296943F0080374
:10495000C361C26922F00402C261C2690A43C26132
:104960000022002384F83C20184670BD02682E689F
:10497000136A116A21F4805111625068D16921F0E3
:10498000807121F4E64141EA0621AE6823F4005328
:1049900043EA06333A4EB2420FD006F50066B24201
:1049A0000BD006F54066B24207D006F58066B242EB
:1049B00003D006F58066B24204D16E6920F48040CF
:1049C00040EA86105060D161696811641362D3694E
:1049D000286943F40063D361D16921F48061D16116
:1049E000D16941EA0021D1610022002384F83C20F2
:1049F000184670BD02682E68136A116A21F480316E
:104A000011625068516D21F4803121F07001314301
:104A1000AE6823F4003343EA0643194EB2420FD086
:104A200006F50066B2420BD006F54066B24207D0EA
:104A300006F58066B24203D006F58066B24204D124
:104A40006E6920F4803040EA062050605165696844
:104A500091651362536D286943F008035365516DE6
:104A600021F004015165516D01435165002200237D
:104A700084F83C20184670BD02231846704700BFDA
:104A8000002C014090F83C30012B3ED070B40268FD
:104A90001F4D022380F83D30AA42536894682AD003
:104AA00005F50065AA4226D00E6823F07003334353
:104AB000B2F1804F536010D0164B9A420DD003F5DF
:104AC00080639A4209D003F580639A4205D0AA42D6
:104AD00003D003F59A339A4204D18B6824F0800402
:104AE0001C4394600023012280F83D2080F83C3074
:104AF00070BC184670474D6823F470032B430D6853
:104B000023F070032B435360E7E70220704700BF98
:104B1000002C014000040040C8B138B524220368CD
:104B2000C2671A680025044622F001021A601D605F
:104B30005D609D60FCF7B2FA84F87850C4F8845048
:104B40002846E567C4F880502566656638BD0120B3
:104B5000704700BF2DE9F8430446C06F202840F09D
:104B60008880884609B1174612B90120BDE8F8834C
:104B70001D464FF000092123C4F88490E367FDF738
:104B800069FEA368A4F85070B3F5805FA4F8527072
:104B9000064671D0B4F8523020689BB2ABB16A1CA3
:104BA0001CD1C2691306FCD5B8F1000F5CD018F80F
:104BB000013B0385B4F85230013B9BB2A4F852305C
:104BC000B4F852309BB2002BE9D1691C5AD1C369A9
:104BD0005A06FCD52023E3670020C7E7C3691F06F8
:104BE000E2D4FDF737FE801B854238D3002D36D046
:104BF00023681A6852071846D1D5DA69170700F1F9
:104C00008980DA691105CAD54FF400621A6253E847
:104C1000002F22F4907243E8002139B153E8002FAD
:104C200022F4907243E800210029F7D103F1080231
:104C300052E8002F22F0010203F1080040E80021B1
:104C40000029F3D1226E012A5BD000232022C4F870
:104C50008020A366236684F87830C4F8842020235B
:104C6000E3670320BDE8F88339F8023BC3F3080388
:104C70009FE70220BDE8F8832369002B8AD1C14653
:104C8000984687E7C3695B06A4D4FDF7E3FD801B64
:104C90008542E4D3002DE2D023681A6851071846F4
:104CA00093D5DA69120763D4DA6917058DD54FF405
:104CB00000621A6253E8002F22F4907243E8002148
:104CC00039B153E8002F22F4907243E80021002903
:104CD000F7D103F1080252E8002F22F0010203F19C
:104CE000080040E800210029F3D1226E012AACD14E
:104CF00053E8002F22F0100243E800210029F7D1E9
:104D0000A3E753E8002F22F0100243E80021002916
:104D1000F7D19AE708221A6253E8002F22F4907222
:104D200043E800210029F7D103F1080252E8002FDF
:104D300022F0010203F1080040E800210029F3D12C
:104D4000226E012A0BD0002320210822C4F88010F3
:104D5000A366236684F87830C4F884207FE753E89C
:104D6000002F22F0100243E800210029F7D1EAE7E2
:104D700008221A6253E8002F22F4907243E80021BF
:104D80000029F7D103F1080252E8002F22F00102B6
:104D900003F1080040E800210029F3D1226E012A26
:104DA000D1D153E8002F22F0100243E8002100295E
:104DB000F7D1C8E738B504460368826800696169BD
:104DC0001D6802430A43E0699F49024329400A43A0
:104DD0001A605A68E16822F440520A439B495A60BB
:104DE0008B42A269996871D0256A21F430612A4307
:104DF0000A4397499A608B4224D0964A934243D003
:104E0000954A934200F0D780944A934200F0A180E3
:104E1000934A934211D1934BD3F8883003F44073F3
:104E2000B3F5007F00F0FF8000F2BE80002B00F0A1
:104E3000DC80B3F5807F00F0998001200022C4E976
:104E40001A2238BD874BD3F8883003F00303013BA7
:104E5000022B78D9B0F5004F00F0F080FEF756FE37
:104E6000002848D062684FF6EF7100EB5200B0FBAB
:104E7000F2F2A2F110038B42DFD82368DA6000223D
:104E8000C4E91A22002038BD764B774AD3F888301F
:104E900003F00C03D35CB0F5004F6DD0082BCCD8D9
:104EA00001A252F823F000BFB14F00085D4E000888
:104EB0002D5000083B4E0008734F00083B4E000881
:104EC0003B4E00083B4E0008DB4F000821F43061E8
:104ED00064480A439A60D0F8883003F44063B3F51D
:104EE000006F00F080800BD883B3B3F5806FA4D13E
:104EF000FEF7DAF948B90022C4E91A22002038BDC9
:104F0000B3F5406F99D14FF40040626802EB420361
:104F1000834292D8B0EB023F8FD8002553084FF45C
:104F2000807C2946E0FB0C3118462B46FBF79CFEA3
:104F30004E4AA0F54071914203463FF67EAF22688B
:104F40002846D3607AE74A4AD35CA4E7FEF7CCFD53
:104F5000D0E7444BD3F8883003F0C003802B62D0F5
:104F60003ED8002B41D0402B7FF467AFB0F5004F07
:104F70005ED0FEF799F973E7082B3FF65EAF01A20A
:104F800052F823F0F14F00083D500008435000084C
:104F90003B4E0008315000083B4E00083B4E0008D5
:104FA0003B4E000837500008B3F5407F12D044E76D
:104FB000FEF79AFD54E72B4BD3F8883003F030030B
:104FC000202B30D003D883B1102BCFD035E7302B36
:104FD0007FF433AFB0F5004F2DD04FF4004041E7E0
:104FE000C02BF7D029E723488FE7B0F5004FDFD17A
:104FF000FEF77AFD00283FF47EAF430062684FF66B
:10500000EF7103EB5203B3FBF2F3A3F110028A42F8
:105010003FF613AF23F00F02216892B2C3F34203AD
:105020001343CB6067E7B0F5004F0AD0114819E78A
:10503000FEF73AF9DEE74FF48033DFE7FEF766FD6F
:10504000D8E70D4BDAE700BFF369FFEF00800040BF
:10505000003801400044004000480040004C00403F
:10506000005000400010024018AE0108FFFC0F0085
:1050700014AE01080024F4000048E801436A1A074E
:1050800010B406D50168446B4A6822F400422243FA
:105090004A60DC0706D50168846A4A6822F4003257
:1050A00022434A60990706D50168C46A4A6822F417
:1050B000803222434A605A0706D50168046B4A6869
:1050C00022F4802222434A60DC0606D50168846B04
:1050D0008A6822F4805222438A60990606D50168C4
:1050E000C46B8A6822F4005222438A605A0609D5AA
:1050F0000168046C4A6822F480122243B4F5801FD0
:105100004A600BD01B0606D50268816C536823F4F5
:1051100000230B4353605DF8044B70474A68446CAE
:1051200022F4C00222434A60ECE700BF38B50023F6
:105130000446C0F88430FDF78DFB226813681B0716
:1051400005460ED4136859072FD400232022E267A6
:105150001846C4F8802023666366002384F87830FC
:1051600038BDD3699802EDD40CE0196849071A4696
:1051700005D5D96908074AD4D969090575D4DB6909
:105180009802DFD4FDF766FB431BB3F1007F236871
:10519000EBD353E8002F22F0800243E800210029DE
:1051A000F7D12023E3670320D7E7D3695B02CCD490
:1051B0000DE01A68500707D5DA69110700F18380FE
:1051C000DA69120500F1AD80DB695B02BDD4FDF741
:1051D00041FB431BB3F1007F2368EAD353E8002F60
:1051E00022F4907243E800210029F7D103F108026C
:1051F00052E8002F22F0010203F1080040E80021EC
:105200000029F3D12023C4F880300320A5E7082229
:105210001A6253E8002F22F4907243E8002100291B
:10522000F7D103F1080252E8002F22F0010203F146
:10523000080040E800210029F3D1226E012A0BD09A
:10524000002220200821C4F88000A266226684F88B
:105250007820C4F884109CE753E8002F22F0100255
:1052600043E800210029F7D1EAE74FF400621A620F
:1052700053E8002F22F4907243E800210029F7D16F
:1052800003F1080252E8002F22F0010203F10800A6
:1052900040E800210029F3D1226E012A0AD0002221
:1052A0002021C4F88010A266226684F87820C4F811
:1052B00084106EE753E8002F22F0100243E800212B
:1052C0000029F7D1EBE708221A6253E8002F22F4F5
:1052D000907243E800210029F7D103F1080252E857
:1052E000002F22F0010203F1080040E8002100290C
:1052F000F3D1226E012A0BD0002220200821C4F80D
:105300008000A266226684F87820C4F8841065E7DD
:1053100053E8002F22F0100243E800210029F7D1C2
:10532000EAE74FF400621A6253E8002F22F4907209
:1053300043E800210029F7D103F1080252E8002FC9
:1053400022F0010203F1080040E800210029F3D116
:10535000226E012A0AD000222021C4F88010A26601
:10536000226684F87820C4F8841037E753E8002FC9
:1053700022F0100243E800210029F7D1EBE700BF3B
:1053800070B3C36F10B504462BB32268616A24233F
:10539000E367136823F001031360C1B92046FFF7E8
:1053A00009FD012811D023685A6822F490425A60FE
:1053B0009A6822F02A029A601A6842F00102204696
:1053C0001A60BDE81040FFF7B1BE012010BD2046B5
:1053D000FFF754FEE2E780F87830FBF711FED4E7E0
:1053E000012070472DE9F04F2DED028BADF6DC1D4D
:1053F0008146BDF9088A0C46924600214FF40062AE
:1054000076A81E4601F0D4F94FF4C872002112A804
:1054100001F0CEF9464580F2B68062000AEBC6156F
:10542000C4F1410B631E023A08EE10AA2C46CDF8D7
:1054300014904FEA4B0BA94637469A46154621462B
:10544000A01C534676AAFCF7A7F82246534607212C
:1054500076A8FCF70BF8013728195A46002101F00D
:10546000A7F9474504F18004E9D101230022402136
:105470000CA84D4618EE10AADDF81490FDF72EF892
:10548000002840F08880294676AA0CA8FDF728F964
:1054900076AA104640230621FBF7E8FF013628468E
:1054A000802276A901F0BDF9464505F18005EAD1D3
:1054B0004FF4007108A8FCF74BFB00286BD13A4B66
:1054C000DFF8F0801E7898F80030384D384C9E4256
:1054D00048DADDF80CBA02274FF40062002176A802
:1054E00001F066F940233246009376A94FF4007329
:1054F0005046CDE9017700F095FB76AA10464B4661
:105500005946FCF7EBF80123002276A908A8FCF71E
:105510002DFC20782A7876AB121A194603EB80000E
:10552000FCF77EF82A782378D31A12AA104676A9B7
:10553000FBF7CCFE20782A7876AB121A17FB009086
:1055400003EB40001946FCF76BF82A782378D31A4E
:1055500012AA76A91046FBF7B9FE98F8003001367A
:10556000B342B9DC2378297812A8C91A76AA07AB06
:10557000FCF710FA2078079B18440DF6DC1DBDECF3
:10558000028BBDE8F08F0123002240210CA8FCF71C
:10559000A5FF00288CD04FF0FF300DF6DC1DBDECD0
:1055A000028BBDE8F08F00BF8AAF010889AF010808
:1055B0008BAF010888AF0108B1F5007F54D8F0B572
:1055C000ADF6040D0C4607464FF400620021684614
:1055D00001F0EEF8002C3FD06E466A46002307EE3D
:1055E000903A0133F8EEE77AA342E2EC017AF6D181
:1055F000601EFAF7A7FF02460B461EA1D1E9000183
:10560000FBF734F9FBF7E0FA224600EE100A694690
:1056100068460025FBF7E4FE96ED000AFCF702F968
:105620000135A542A6EC010AF6D168462246694634
:10563000BEEE000AFBF7D4FE22466946B6EE000A2B
:105640006846FBF787FE684622463946FCF7FAF9BA
:1056500000200DF6040DF0BD9FED050A22466946B7
:105660006846FBF7BDFEE0E74FF0FF30704700BF34
:10567000DB0FC9C0182D4454FB2119400000000065
:105680009FED0B7B0C4810B50C4C00234FF46121AF
:105690000C2280ED087BC0E90041C0E90233C0E97B
:1056A00004328361FFF76CFE08B172B6FEE710BDED
:1056B0000000000000000000E8060220008000401A
:1056C000704700BF0000000000B599B044220021DF
:1056D00006A801F06DF800234FF40070CDE9013306
:1056E000CDE903330593FDF74FFD08B172B6FEE730
:1056F0000A214FF480729FED147B0691099240219C
:1057000001220223CDE90A121922CDE91033CDE995
:10571000123206A8042316938DED147BFDF71EFEAE
:10572000034608B172B6FEE703210F2201A8CDE9B6
:105730000121CDE903330593FEF722F908B172B6D2
:10574000FEE719B05DF804FB020000000200000053
:105750002DE9F04F2DED028B002499B0FDF756F89E
:10576000FFF7B2FFCDE91044CDE91244614B149428
:10577000DA6CDFF8988142F00102DA64DA6C02F048
:1057800001020592059ADA6C42F02002DA64DA6CC2
:1057900002F020020692069ADA6C42F01002DA64F5
:1057A000DA6C02F010020792079ADA6C42F04002BB
:1057B000DA64DB6C03F040030893089BFDF726FDD9
:1057C00022464D484FF40051FDF7F8FB22464B4866
:1057D0004FF42061FDF7F2FB4FF400624FF48813A1
:1057E0004548129410A9CDE910230126FDF730FA9F
:1057F0004FF40055404810A9CDE91244CDE91056A8
:10580000FDF726FA4FF420633C48109310A9CDE928
:1058100011641394FDF71CFA224621462820FDF757
:1058200063F92820FDF79EF9FFF72AFF344B09940E
:10583000CDE90C44CDE90E44CDE91044CDE9124444
:10584000CDE91444CDE90A441694C8F80840C8F8D4
:105850001040C8F818404FF0090904244046C8E930
:105860000034C8F80C90FEF71FFD08B172B6FEE7D1
:105870004FF480530CA940460C93FEF7D9FE08B1B3
:1058800072B6FEE74046FEF79DFD08B172B6FEE730
:1058900009900B9009A94046FFF7F4F808B172B6D9
:1058A000FEE71290149010A9224640464FF0600A7D
:1058B0004FF0050BCDE910ABFEF7AAFF074608B184
:1058C00072B6FEE74046FBF717FC0E480E4B03602E
:1058D0004FF4606383604FF6FF73C0E90877C0E957
:1058E0000A77476007634361FDF77CFB074678B1A1
:1058F00072B6FEE700100240001400480010004895
:1059000000040040AC060220007C0040700702202A
:1059100021464046FEF7E2FD9D48DFF8C4A2DFF8CD
:10592000C4B29FED9C8A00F03BFF9B4800F038FF1B
:105930004FF0400802234FF40072984998480193B1
:10594000CDF80080434600F051F94FF40071504605
:10595000FFF732FE934800F023FF934800F020FF4A
:105960005846FFF7D9F83246294690488DED108AFF
:10597000FDF724FB4FF0E0228D4ED2F8FC3D43F0C2
:105980008073C2F8FC3D77603368854A43F00103B9
:105990004C464FF40079336041463B46CDF80090C9
:1059A0004846CDE901ABFFF71DFD07EE900AF8EE82
:1059B000677A2946CDED107A756833687B4823F005
:1059C00001033A463360FDF7F9FA9FED7A7ADDED8F
:1059D000107A73497848CDF8008067EE877A022301
:1059E0004A4601934346CDED107A00F0FFF8FFF7E9
:1059F00047FE1098FAF7B8FD0B4602466F4800F0D4
:105A000069FE29466E4800F065FE6E4800F0C8FE4B
:105A100039464FF4803262488DED108A00F0C8FE9E
:105A200069495F484FF4C06200F0FBFE0C223B4620
:105A3000414648460092CDE901AB594ADFF85C91F6
:105A4000DFF86881FFF7CEFC55494FF4C06201F5DD
:105A5000C8500F4600F0E5FE4FF4C85202FB049117
:105A6000384600F0DEFE01224FF400514046FDF7BB
:105A7000A5FA4FF0E0210023D1F8FC2D42F080720E
:105A8000C1F8FC2D7360326842F0010232603222AC
:105A90000092CDE901AB3A4640214FF40070FFF788
:105AA000A1FC07EE900AF8EE677ACDED107A002C93
:105AB00035D1756833683D4823F0010322463360D1
:105AC0004FF40051FDF77AFA9FED3A7ADDED107A46
:105AD00067EE877ACDED107A1098FAF745FD024609
